:020000040800F2
:1000000000800220B9D10008FF180008011900087B
:10001000031900080519000807190008000000006E
:1000200000000000000000000000000009190008A6
:100030000B190008000000000D1900080F19000836
:1000400009D2000809D2000809D2000809D2000824
:1000500009D2000809D2000809D2000809D2000814
:1000600009D2000809D2000809D2000809D2000804
:1000700009D2000809D2000809D2000809D20008F4
:1000800009D2000809D2000809D2000809D20008E4
:1000900009D2000809D2000809D2000809D20008D4
:1000A00009D2000809D2000809D2000809D20008C4
:1000B00009D2000809D200080000000009D2000897
:1000C00009D2000809D2000809D2000809D20008A4
:1000D00009D2000809D200081919000809D200083D
:1000E00009D2000809D2000800000000000000004A
:1000F0000000000000000000000000000000000000
:100100000000000009D200080000000009D2000829
:1001100009D200080000000009D200080000000019
:1001200009D2000809D2000809D2000809D2000843
:1001300009D2000809D2000809D200080000000016
:1001400009D2000809D2000809D2000829190008BC
:1001500009D2000809D2000809D2000809D2000813
:1001600009D2000809D2000809D2000800000000E6
:100170000000000009D2000800000000000000009C
:1001800009D2000809D2000809D2000809D20008E3
:0801900009D200080000000084
:1001A00010B5054C237833B9044B13B10448AFF3B1
:1001B00000800123237010BD6803002000000000B0
:1001C0001C0B010808B5034B1BB103490348AFF3EF
:1001D000008008BD000000006C0300201C0B01081B
:1001E00001F0FF01102A2BDB10F0070F08D010F8E8
:1001F000013B013A8B422DD010F0070F42B3F6D1EC
:10020000F0B441EA012141EA014122F007047FF004
:1002100000070023F0E80256083C85EA010586EA5B
:10022000010685FA47F5A3FA87F586FA47F6A5FA97
:1002300087F68EB9EED1F0BC01F0FF0102F00702A3
:1002400032B110F8013B013A83EA010313B1F8D14E
:100250000020704701387047002D06BF354603382F
:10026000073815F0010F07D1013015F4807F02BF68
:10027000013015F4C03F0130F0BC0138704700BFB9
:1002800010F8012B11F8013B012A28BF9A42F7D040
:10029000D01A7047034613F8012B002AFBD1181A15
:1002A0000138704781F0004102E000BF83F0004355
:1002B00030B54FEA41044FEA430594EA050F08BF01
:1002C00090EA020F1FBF54EA000C55EA020C7FEAC5
:1002D000645C7FEA655C00F0E2804FEA5454D4EB42
:1002E0005555B8BF6D420CDD2C4480EA020281EA0C
:1002F000030382EA000083EA010180EA020281EA44
:100300000303362D88BF30BD11F0004F4FEA013195
:100310004FF4801C4CEA113102D0404261EB4101A4
:1003200013F0004F4FEA03334CEA133302D052422A
:1003300063EB430394EA050F00F0A780A4F10104E6
:10034000D5F1200E0DDB02FA0EFC22FA05F2801820
:1003500041F1000103FA0EF2801843FA05F3594106
:100360000EE0A5F120050EF1200E012A03FA0EFC85
:1003700028BF4CF0020C43FA05F3C01851EBE371AF
:1003800001F0004507D54FF0000EDCF1000C7EEBCC
:1003900000006EEB0101B1F5801F1BD3B1F5001F0A
:1003A0000CD349085FEA30004FEA3C0C04F1010429
:1003B0004FEA445212F5800F80F09A80BCF1004F52
:1003C00008BF5FEA500C50F1000041EB045141EAD4
:1003D000050130BD5FEA4C0C404141EB0101013C9D
:1003E00028BFB1F5801FE9D291F0000F04BF01468C
:1003F0000020B1FA81F308BF2033A3F10B03B3F15E
:1004000020020CDA0C3208DD02F1140CC2F10C02ED
:1004100001FA0CF021FA02F10CE002F11402D8BF4B
:10042000C2F1200C01FA02F120FA0CFCDCBF41EA17
:100430000C019040E41AA2BF01EB0451294330BDE6
:100440006FEA04041F3C1CDA0C340EDC04F11404C3
:10045000C4F1200220FA04F001FA02F340EA03009A
:1004600021FA04F345EA030130BDC4F10C04C4F1E0
:10047000200220FA02F001FA04F340EA03002946C0
:1004800030BD21FA04F0294630BD94F0000F83F40A
:10049000801306BF81F480110134013D4EE77FEAED
:1004A000645C18BF7FEA655C29D094EA050F08BF39
:1004B00090EA020F05D054EA000C04BF194610461A
:1004C00030BD91EA030F1EBF0021002030BD5FEA5E
:1004D000545C05D14000494128BF41F0004130BD86
:1004E00014F580043CBF01F5801130BD01F00045DA
:1004F00045F0FE4141F470014FF0000030BD7FEA4D
:10050000645C1ABF194610467FEA655C1CBF0B4647
:10051000024650EA013406BF52EA033591EA030F5E
:1005200041F4002130BD00BF90F0000F04BF002156
:10053000704730B54FF4806404F132044FF0000589
:100540004FF0000150E700BF90F0000F04BF002102
:10055000704730B54FF4806404F1320410F0004568
:1005600048BF40424FF000013EE700BF42004FEA63
:10057000E2014FEA31014FEA02701FBF12F07F43E0
:1005800093F07F4F81F06051704732F07F4208BF97
:10059000704793F07F4F04BF41F40021704730B59E
:1005A0004FF4607401F0004521F000411CE700BFEA
:1005B00050EA010208BF704730B54FF000050AE06D
:1005C00050EA010208BF704730B511F0004502D56E
:1005D000404261EB41014FF4806404F132045FEA70
:1005E000915C3FF4D8AE4FF003025FEADC0C18BF19
:1005F00003325FEADC0C18BF033202EBDC02C2F10B
:10060000200300FA03FC20FA02F001FA03FE40EA9C
:100610000E0021FA02F11444BDE600BF70B54FF0A0
:10062000FF0C4CF4E06C1CEA11541DBF1CEA13557E
:1006300094EA0C0F95EA0C0F00F0DEF82C4481EAE6
:10064000030621EA4C5123EA4C5350EA013518BF06
:1006500052EA033541F4801143F4801338D0A0FBF3
:1006600002CE4FF00005E1FB02E506F00042E0FBA0
:1006700003E54FF00006E1FB03569CF0000F18BFA6
:100680004EF0010EA4F1FF04B6F5007F64F540744E
:1006900004D25FEA4E0E6D4146EB060642EAC621E1
:1006A00041EA55514FEAC52040EA5E504FEACE2E4E
:1006B000B4F1FD0C88BFBCF5E06F1ED8BEF1004F51
:1006C00008BF5FEA500E50F1000041EB045170BDCD
:1006D00006F0004646EA010140EA020081EA030111
:1006E000B4EB5C04C2BFD4EB0C0541EA045170BD0D
:1006F00041F480114FF0000E013C00F3AB8014F187
:10070000360FDEBF002001F0004170BDC4F10004CF
:10071000203C35DA0C341BDC04F11404C4F1200550
:1007200000FA05F320FA04F001FA05F240EA0200AB
:1007300001F0004221F0004110EBD37021FA04F6E1
:1007400042EB06015EEA430E08BF20EAD37070BD9B
:10075000C4F10C04C4F1200500FA04F320FA05F0FA
:1007600001FA04F240EA020001F0004110EBD370FC
:1007700041F100015EEA430E08BF20EAD37070BD6C
:10078000C4F1200500FA05F24EEA020E20FA04F345
:1007900001FA05F243EA020321FA04F001F00041F4
:1007A00021FA04F220EA020000EBD3705EEA430E65
:1007B00008BF20EAD37070BD94F0000F0FD101F094
:1007C0000046400041EB010111F4801F08BF013CCD
:1007D000F7D041EA060195F0000F18BF704703F00B
:1007E0000046520043EB030313F4801F08BF013D92
:1007F000F7D043EA0603704794EA0C0F0CEA13554E
:1008000018BF95EA0C0F0CD050EA410618BF52EA07
:100810004306D1D181EA030101F000414FF000000D
:1008200070BD50EA410606BF1046194652EA43061B
:1008300019D094EA0C0F02D150EA013613D195EA8F
:100840000C0F05D152EA03361CBF104619460AD1D7
:1008500081EA030101F0004141F0FE4141F47001E1
:100860004FF0000070BD41F0FE4141F4780170BDD1
:1008700070B54FF0FF0C4CF4E06C1CEA11541DBF36
:100880001CEA135594EA0C0F95EA0C0F00F0A7F838
:10089000A4EB050481EA030E52EA03354FEA013165
:1008A00000F088804FEA03334FF0805545EA131378
:1008B00043EA12634FEA022245EA111545EA106540
:1008C0004FEA00260EF000419D4208BF964244F1D7
:1008D000FD0404F5407402D25B084FEA3202B61AF6
:1008E00065EB03055B084FEA32024FF480104FF4CA
:1008F000002CB6EB020E75EB030E22BFB61A75463E
:1009000040EA0C005B084FEA3202B6EB020E75EBD0
:10091000030E22BFB61A754640EA5C005B084FEA38
:100920003202B6EB020E75EB030E22BFB61A754605
:1009300040EA9C005B084FEA3202B6EB020E75EB10
:10094000030E22BFB61A754640EADC0055EA060ED1
:1009500018D04FEA051545EA16754FEA06164FEA14
:10096000C30343EA52734FEAC2025FEA1C1CC0D1C0
:1009700011F4801F0BD141EA00014FF000004FF04D
:10098000004CB6E711F4801F04BF01430020B4F10E
:10099000FD0C88BFBCF5E06F3FF6AFAEB5EB030CC6
:1009A00004BFB6EB020C5FEA500C50F1000041EBC3
:1009B000045170BD0EF0004E4EEA113114EB5C0490
:1009C000C2BFD4EB0C0541EA045170BD41F4801163
:1009D0004FF0000E013C90E645EA060E8DE60CEA6B
:1009E000135594EA0C0F08BF95EA0C0F3FF43BAF88
:1009F00094EA0C0F0AD150EA01347FF434AF95EA3F
:100A00000C0F7FF425AF104619462CE795EA0C0F22
:100A100006D152EA03353FF4FDAE1046194622E7EF
:100A200050EA410618BF52EA43067FF4C5AE50EAC9
:100A300041047FF40DAF52EA43057FF4EBAE12E7B9
:100A40004FF0FF3C06E000BF4FF0010C02E000BF9A
:100A50004FF0010C4DF804CD4FEA410C7FEA6C5C7D
:100A60004FEA430C18BF7FEA6C5C1BD001B050EA20
:100A7000410C0CBF52EA430C91EA030F02BF90EA0B
:100A8000020F0020704710F1000F91EA030F58BFCA
:100A9000994208BF90422CBFD8176FEAE37040F02C
:100AA000010070474FEA410C7FEA6C5C02D150EACA
:100AB000013C07D14FEA430C7FEA6C5CD6D152EA85
:100AC000033CD3D05DF8040B704700BF844610464A
:100AD00062468C461946634600E000BF01B5FFF749
:100AE000B7FF002848BF10F1000F01BD4DF808ED19
:100AF000FFF7F4FF0CBF012000205DF808FB00BFEA
:100B00004DF808EDFFF7EAFF34BF012000205DF843
:100B100008FB00BF4DF808EDFFF7E0FF94BF012090
:100B200000205DF808FB00BF4DF808EDFFF7CEFF91
:100B300094BF012000205DF808FB00BF4DF808EDD0
:100B4000FFF7C4FF34BF012000205DF808FB00BFA1
:100B50004FEA410C7FEA6C5C02D150EA013C0AD1B9
:100B60004FEA430C7FEA6C5C02D152EA033C02D1AB
:100B70004FF0000070474FF0010070474FEA41020C
:100B800012F5001215D211D56FF47873B3EB6252DF
:100B900012D94FEAC12343F0004343EA505311F006
:100BA000004F23FA02F018BF404270474FF0000098
:100BB000704750EA013005D111F0004008BF6FF0D6
:100BC000004070474FF00000704700BF4FEA4102FD
:100BD000B2F1E04324BFB3F5001CDCF1FE5C0DD99B
:100BE00001F0004C4FEAC0024CEA5070B2F1004FE5
:100BF00040EB830008BF20F00100704711F0804FE8
:100C000021D113F13872BCBF01F00040704741F4AC
:100C100080114FEA5252C2F11802C2F1200C10FAB0
:100C20000CF320FA02F018BF40F001004FEAC12394
:100C30004FEAD32303FA0CFC40EA0C0023FA02F338
:100C40004FEA4303CCE77FEA625307D150EA01330E
:100C50001EBF4FF0FE4040F44000704701F00040DE
:100C600040F0FE4040F40000704700BF80F00040BC
:100C700002E000BF81F0004142001FBF5FEA410374
:100C800092EA030F7FEA226C7FEA236C6AD04FEA74
:100C90001262D2EB1363C1BFD218414048404140B9
:100CA000B8BF5B42192B88BF704710F0004F40F46B
:100CB000000020F07F4018BF404211F0004F41F487
:100CC000000121F07F4118BF494292EA030F3FD053
:100CD000A2F1010241FA03FC10EB0C00C3F1200366
:100CE00001FA03F100F0004302D5494260EB4000F5
:100CF000B0F5000F13D3B0F1807F06D340084FEA60
:100D0000310102F10102FE2A51D2B1F1004F40EB54
:100D1000C25008BF20F0010040EA030070474900BC
:100D200040EB0000013A28BFB0F5000FEDD2B0FA59
:100D300080FCACF1080CB2EB0C0200FA0CF0AABF7C
:100D400000EBC25052421843BCBFD040184370471A
:100D500092F0000F81F4000106BF80F40000013220
:100D6000013BB5E74FEA41037FEA226C18BF7FEAF7
:100D7000236C21D092EA030F04D092F0000F08BF39
:100D80000846704790EA010F1CBF0020704712F020
:100D90007F4F04D1400028BF40F00040704712F15F
:100DA00000723CBF00F50000704700F0004343F0C4
:100DB000FE4040F4000070477FEA226216BF0846FA
:100DC0007FEA23630146420206BF5FEA412390EABD
:100DD000010F40F4800070474FF0000304E000BFB3
:100DE00010F0004348BF40425FEA000C08BF704764
:100DF00043F0964301464FF000001CE050EA010228
:100E000008BF70474FF000030AE000BF50EA01023C
:100E100008BF704711F0004302D5404261EB410129
:100E20005FEA010C02BF84460146002043F0B6434E
:100E300008BFA3F18053A3F50003BCFA8CF2083A73
:100E4000A3EBC25310DB01FA02FC634400FA02FC7C
:100E5000C2F12002BCF1004F20FA02F243EB020083
:100E600008BF20F00100704702F1200201FA02FCE5
:100E7000C2F1200250EA4C0021FA02F243EB0200D8
:100E800008BF20EADC70704753B94AB9002908BF8F
:100E900000281CBF4FF0FF314FF0FF3000F06EB95B
:100EA000ADF1080C6DE904CE00F006F8DDF804E0C1
:100EB000DDE9022304B070472DE9F047089D0446A0
:100EC0008C46002B40F083808A42174647D9B2FAFD
:100ED00082F242B1C2F1200024FA00F09140974022
:100EE00040EA010C94404FEA1748230CBCFBF8F68B
:100EF0001FFA87FE08FB16C143EA014306FB0EF109
:100F0000994209D9FB1806F1FF3080F01981994206
:100F100040F21681023E3B445B1AA4B2B3FBF8F0E8
:100F200008FB103344EA034400FB0EFEA64509D932
:100F30003C1900F1FF3380F00581A64540F20281A3
:100F400002383C4440EA0640A4EB0E0400261DB1E2
:100F5000D4400023C5E900433146BDE8F08702B91B
:100F6000FFDEB2FA82F2002A50D1CB1B4FEA174EB5
:100F70001FFA87F80126B3FBFEFC210C0EFB1C3385
:100F800041EA034108FB0CF38B4207D979180CF1B5
:100F9000FF3002D28B4200F2E9808446C91AA3B224
:100FA000B1FBFEF00EFB101143EA014408FB00F810
:100FB000A04507D93C1900F1FF3302D2A04500F249
:100FC000D9801846A4EB080440EA0C40BFE78B42E6
:100FD00009D9002D00F0B1800026C5E90001304696
:100FE0003146BDE8F087B3FA83F6002E4AD18B4232
:100FF00002D3824200F2B880841A61EB030101201F
:101000008C46002DA8D0C5E9004CA5E7C2F120030D
:1010100020FA03F6974001FA02F04FEA174ED94042
:101020003043030CB1FBFEF61FFA87F80EFB1611D6
:1010300043EA014306FB08F1994204FA02F409D994
:10104000FB1806F1FF3C80F08D80994240F28A80C7
:10105000023E3B445B1A81B2B3FBFEF00EFB103341
:1010600041EA034100FB08F38B4207D9791800F1EC
:10107000FF3C73D28B4271D902383944CB1A40EA13
:10108000064678E7C6F1200C03FA06F422FA0CF3C0
:101090001C4320FA0CF701FA06F34FEA144E21FA2A
:1010A0000CF11F433B0CB1FBFEF91FFA84F80EFB59
:1010B000191143EA014109FB08FA8A4502FA06F2CE
:1010C00000FA06F308D9611809F1FF3048D28A45C1
:1010D00046D9A9F102092144A1EB0A01BFB2B1FB33
:1010E000FEF00EFB101147EA014700FB08F8B84577
:1010F00007D9E71900F1FF312ED2B8452CD90238B3
:10110000274440EA0940A7EB0807A0FB02894F45A6
:10111000C64649461AD317D05DB1B3EB0E0267EB52
:10112000010707FA0CFCF2404CEA0202F740C5E95D
:10113000002700263146BDE8F0872E4628460BE7FB
:101140000646E9E61846FDE64345E5D2B8EB020E51
:1011500069EB04010138DFE70846D2E760468DE716
:101160008146B9E7664675E730464AE7ACF1020CBE
:10117000394413E702383C4424E700BF704700BFFE
:10118000704710B485B002460B464C68C968986831
:1011900004AB03E903005368A34204D0002005B068
:1011A0005DF8044B7047936802998B4201D0002090
:1011B000F5E7D168039A91420AD00BB10020EEE71F
:1011C00012F0010F06D111F0010F05D00020E6E763
:1011D0000120E4E70020E2E70120E0E72DE9F0410B
:1011E0008AB0002405940694079408940994484B07
:1011F000DA6C42F00402DA64DA6C02F00402019262
:10120000019ADA6C42F08002DA64DA6C02F0800251
:101210000292029ADA6C42F00102DA64DA6C02F0AD
:1012200001020392039ADA6C42F00202DA64DB6C88
:1012300003F002030493049BDFF8E08022464FF49E
:101240000041404602F035F9324F2246012138462E
:1012500002F02FF922464FF492614FF0904002F0D5
:1012600028F92D4E224641F28121304602F021F923
:101270004FF4C04305930694079405A9404602F035
:1012800045F84FF40043059301250695079408940B
:1012900005A9404602F03AF805950695079408948A
:1012A00005A9384602F032F80A23059306940794FC
:1012B00005A9384602F02AF840F202330593069455
:1012C000079405A94FF0904002F020F84FF4926384
:1012D000059306950794089405A94FF0904002F0F5
:1012E00015F841F28123059306950794089405A902
:1012F000304602F00BF84FF4B3730593069407944D
:1013000005A9304602F002F80AB0BDE8F08100BF3E
:1013100000100240001C004800040048000800487B
:1013200070B586B000240094019402940394049450
:101330000594144D144B2B606C60AC60EC602C6118
:1013400004266E612C766C760123EB6185F82040D3
:10135000AC62EC6285F830406C6385F83840284612
:1013600000F034FC094B00930623019302947F2381
:101370000393049605946946284600F015FD06B0CF
:1013800070BD00BF84030020000004502000F01452
:1013900008B50E480E4B03604FF482734360002380
:1013A00083604FF44072C260036143614FF4007286
:1013B0008261C3610362436283620722C262036384
:1013C0000823436302F06EF908BD00BF3804002013
:1013D0000038004030B589B0002404940594069488
:1013E00007940194029403940E4D4FF080432B60B8
:1013F0006C60AC604FF0FF33EB602C61AC61284651
:1014000002F05CFB4FF48053049304A9284602F0D9
:1014100091FC0194039401A9284602F0F9FC09B05B
:1014200030BD00BF9C04002030B58FB000240A946A
:101430000B940C940D9407940894099400940194CF
:1014400002940394049405940694164D164B2B6055
:101450006C60AC604FF6FF73EB602C61AC612846AA
:1014600002F02CFB4FF480530A930AA9284602F09D
:1014700061FC284602F052FB0794099407A928460C
:1014800002F0C6FC60230093019402940494224667
:101490006946284602F0AEFB284600F02FFB0FB04D
:1014A00030BD00BFE80400200004004008B5094832
:1014B000094B03604FF4E133436000238360C36052
:1014C00003610C2242618361C3610362436203F0E2
:1014D0006FF908BD340500200044004038B50D4CBC
:1014E0000D4B23600D4B63600025A5600123E36075
:1014F00025616561A561E5612562204600F012FF66
:101500002946204600F06CFF2946204600F096FF51
:1015100038BD00BFEC03002000580040EC9C901048
:1015200010B5044610210BF0EBFE204610BDF0B5BF
:10153000B1B02422002120A80CF022FC00241A942F
:101540001B941C941D941E946822214668460CF03E
:1015500017FC10231F93012625966023279302254D
:1015600029952A962B9628232C9307272D972E957D
:101570002F951FA801F030F80F231A9303231B9314
:101580001C941D941E9404211AA801F065FB46F2D8
:101590008203009309940E944FF0805317934FF0F9
:1015A000806314930196029618230393049705957C
:1015B00006954FF088730793684601F0DBFC4FF403
:1015C000007001F0B5FF31B0F0BD70472DE9F04F6C
:1015D00083B0884693460123009342680368D31A78
:1015E0006FF06041B1EBA30F38D004469E10019616
:1015F000002E36D001AB186806442368D21AB6EB29
:10160000A20F30D3B6F1005F30D2D4F80090D4F8F6
:1016100004A0A8EB090576B3B6F1005F29D2B000AB
:101620000BF070FE0746DBF800307B51002D24DC08
:1016300004353D44AAEB080ABAF1000F23DC5544F7
:10164000B9F1000F02D048460BF058FE27606560E4
:1016500007EB8606A66003B0BDE8F08F0D480BF0DF
:10166000F1FF6B46C7E76FF06046CEE76FF060466C
:10167000CBE70BF0E1FF0027D5E72A46494638467D
:101680000CF064FBD4E75246414628460CF05EFB62
:10169000D5E700BF380B010810B5044643688268DF
:1016A000934207D00A681A60436804334360606855
:1016B000043810BD0A461946FFF788FFF7E7000017
:1016C00070B582B005460E4661B1941B01940F2C93
:1016D0000DD82868012C13D0A4B1224631460CF055
:1016E00027FB0FE09142F0D00A480BF0A8FF002240
:1016F00001A928460CF06AF82860019BAB60E8E776
:1017000033780370019B6B602A680021D15402B0CA
:1017100070BD00BF540B0108F0B58FB000F0CCFDD8
:10172000FFF705FFFFF75AFDFFF7FAFDFFF730FE61
:10173000FFF77AFEFFF7BAFEFFF7D0FE04F0DAFEFD
:10174000FFF748FE0AF0EAFD08F000F80AF0E6FDAF
:1017500004460AF0E3FD0368196A204608F0E6F83B
:101760000AF0DCFD08F054F90AF0D8FD44680AF0EC
:10177000D5FD8168204606F01BF8002406940794E6
:10178000089409940A940B9402940394049407AE69
:1017900005962D4A4FF00003911E05A8FFF790FF14
:1017A00004230B930AF08AFE05460AF0B7FD47684A
:1017B00010200BF0A7FD0346244A0C920D946A46B4
:1017C0000EA911E9030082E80300214919605F6056
:1017D00003F1080492E8030084E803000093114633
:1017E0002846FFF759FF0598B04201D00BF086FD5F
:1017F000029808B10BF082FD0AF090FD03685C6A64
:1018000030200BF07FFD21460BF032FB0C200BF05B
:1018100079FD04460F2243210AF0B4FD23685B687A
:1018200000212046984723685B680021204698479E
:10183000FA2000F063FD23685B6801212046984789
:10184000FA2000F05BFDEEE7DA0D0108BB7B000833
:10185000400C010870B582B005460E4661B1941B7C
:1018600001940F2C0DD82868012C13D0A4B1224666
:1018700031460CF05DFA0FE09142F0D00A480BF0CF
:10188000DEFE002201A928460BF0A0FF2860019B84
:10189000AB60E8E733780370019B6B602A68002136
:1018A000D15402B070BD00BF540B010870B586B0B2
:1018B000436813B30A46C46814F0010F1BD06110CB
:1018C0005D5881686E5803EB640402AD00951168A1
:1018D00052684FF000030A446846FFF7BBFF6946B1
:1018E0002046B04704460098A84201D00BF006FD00
:1018F000204606B070BD8668E5E70024F8E770472B
:10190000FEE7FEE7FEE7FEE770477047704708B561
:1019100000F0E2FC08BD000008B5024802F020FC1F
:1019200008BD00BF3405002008B5024803F021FCC3
:1019300008BD00BFBC08002082B00A4B1A6E42F0FE
:1019400001021A661A6E02F001020092009A9A6D64
:1019500042F080529A659B6D03F080530193019B86
:1019600002B070470010024000B589B00023039315
:1019700004930593069307930268144B9A4202D08E
:1019800009B05DF804FB03F17043A3F5F833DA6C9A
:1019900042F40052DA64DA6C02F400520192019AC5
:1019A000DA6C42F00102DA64DB6C03F001030293AB
:1019B000029B612303930B2304930023059303A944
:1019C0004FF0904001F0A2FCDAE700BF00000450A5
:1019D00010B588B0002303930493059306930793EF
:1019E0000268144B9A4201D008B010BD124CE36C4F
:1019F00043F00203E364E36C03F002030193019BF1
:101A00004FF44063039312230493012305930323AC
:101A100006930423079303A9084801F077FCA36DFC
:101A200043F48003A365A36D03F480030293029B38
:101A3000DAE700BF005800400010024000040048F0
:101A400000B589B00023039304930593069307938D
:101A50000268154B9A4202D009B05DF804FB03F509
:101A6000EC339A6D42F480429A659A6D02F480429A
:101A70000192019ADA6C42F00202DA64DB6C03F044
:101A800002030293029B4FF46043039302230493E7
:101A900000230593032306930523079303A9034813
:101AA00001F034FCD8E700BF0038004000040048D3
:101AB00082B00368B3F1804F04D00E4A93420DD038
:101AC00002B0704703F504339A6D42F001029A6543
:101AD0009B6D03F001030093009BF1E7064B9A6DA9
:101AE00042F002029A659B6D03F002030193019B91
:101AF000E6E700BF000400400010024000B587B0D8
:101B000000230193029303930493059302680F4B00
:101B10009A4202D007B05DF804FB03F50333DA6C98
:101B200042F00202DA64DB6C03F002030093009BD4
:101B3000102301930223029300220392049205933F
:101B400001A9034801F0E2FBE4E700BF0004004004
:101B50000004004810B588B0002303930493059354
:101B6000069307930268184B9A4201D008B010BD43
:101B700003F5E6339A6D42F400329A659A6D02F4E9
:101B800000320192019ADA6C42F00102DA64DB6CF5
:101B900003F001030293029B0C230393022304939B
:101BA00000240594032306930723079303A94FF00A
:101BB000904001F0ABFB22462146262001F01AFDA1
:101BC000262001F04BFDD1E70044004030B583B042
:101BD00000230193002800F0DA800446836D03B3EC
:101BE00023689A6812F0005F05D09A6822F02042BC
:101BF00022F03F029A602268936813F0805F1DD143
:101C0000936823F0104323F03F0343F08053936025
:101C1000604B1B689B09604AA2FB03239B0901934D
:101C200009E0FFF7A1FE0023E36584F85430D7E70D
:101C3000019B013B0193019B002BF9D12268936822
:101C400013F0805F09D1A36D43F01003A365E36D2A
:101C500043F00103E365012000E00020936813F0E6
:101C6000040300D00123A16D11F0100F40F0888013
:101C7000002B40F08580A36D23F4817343F00203B1
:101C8000A365936813F0010F0BD1444B9B6813F0CD
:101C9000010F06D1636842498A6822F47C1213431B
:101CA0008B60627E636B43EA4233E2681343A2684F
:101CB000134394F8202043EA0243012A40D0A26A49
:101CC00022B102F47072E16A0A4313432168CD68BD
:101CD000344A2A401343CB6021688B6813F0040315
:101CE00000D001238A6812F0080200D00122C3B993
:101CF000BAB9E36C227E43EA823394F8302043EA97
:101D00004202CB6823F4804323F006031343CB60E5
:101D100094F83830012B18D02268136923F001039E
:101D200013612369012B22D02268136B23F00F0368
:101D30001363A36D23F0030343F00103A36524E0C1
:101D4000626A013A43EA4243B9E721680B6923F426
:101D5000FF6323F00403E26B256C2A43656C2A437E
:101D6000A56C2A43134343F001030B61D9E72168B3
:101D70000B6B23F00F03E269013A13430B63D8E7BF
:101D8000A36D43F01003A365012003B030BD012013
:101D9000FBE700BF0C000020632D3E05000004504F
:101DA0000003045007C0F0FFF0B482B0002201929B
:101DB00090F85420012A00F04D820346012280F859
:101DC00054200268926812F0040F0AD0826D42F02B
:101DD000200282650120002283F8542002B0F0BC6A
:101DE00070474A68052A09D8023A032A00F2978008
:101DF000DFE802F0028B8E910C224A601E684D686B
:101E00000C6830362A0A920002F00C02B05805F035
:101E10001F051F27AF4020EA0700C4F38464AC40CD
:101E20002043B0501C68A26812F0040200D00122C6
:101E3000A06810F0080000D00120002A32D188BB31
:101E40008868B0F1004F6DD00E681434720E9200A5
:101E500002F00402A558C6F304560727B74025EA46
:101E60000705B0402843A0501868426922F000429C
:101E700042614C691868C268C2F3C102520004FA98
:101E800002F20D69042D62D00E68603050F82570A2
:101E9000B04C3C4006F0F8463243144344F0004452
:101EA00040F825401868826812F0010F16D10A68C0
:101EB000CD68D0F8B040C2F3120624EA060405F05B
:101EC0001806A54DF5402A40C2F312022243C0F87D
:101ED000B020C868A14A904200F0A1800A68A049D9
:101EE0000A4200F0B3819F49896801F0E0749E487E
:101EF000824200F05E819D48824200F080819C48D1
:101F0000824200F09081002065E712224A6075E766
:101F100018224A6072E74FF480724A606EE7062228
:101F20004A606BE708681434420E920002F0040223
:101F3000A558C0F30450072606FA00F025EA000071
:101F4000A0501868426942F00042426191E7026E77
:101F5000046EC4F384640A68C2F3120585BBC2F33D
:101F60008462944234D01C68626E606EC0F38460F8
:101F70000A68C2F3120585BBC2F38462904234D072
:101F80001C68A26EA06EC0F384600A68C2F31205DA
:101F900085BBC2F38462904234D01C68E26EE06E6E
:101FA000C0F384600A68C2F3120585BBC2F3846281
:101FB00090427FF477AFE26E22F00042E26671E772
:101FC00092FAA2F212B1B2FA82F2CAE72022C8E76C
:101FD000026E22F000420266C5E792FAA2F212B146
:101FE000B2FA82F2CAE72022C8E7626E22F000420B
:101FF0006266C5E792FAA2F212B1B2FA82F2CAE7B9
:102000002022C8E7A26E22F00042A266C5E792FA3B
:10201000A2F212B1B2FA82F2CAE72022C8E71D6822
:102020000A68C2F31206002E35D1900E013000F07E
:102030001F0009288CBF00200120002862D0002E3C
:1020400038D1940E0134A40604F0F844002E3DD19A
:10205000900E013000F01F070120B8400443002E0D
:1020600042D1920E013202F01F0202EB420212052F
:1020700022438C681435500E800000F004002E5866
:10208000C2F304520727974026EA070604FA02F231
:1020900032432A5022E792FAA2F048B1B0FA80F017
:1020A000013000F01F0009288CBF00200120C4E788
:1020B0002020F5E792FAA2F434B1B4FA84F40134A2
:1020C000A40604F0F844C1E72024F8E792FAA2F04D
:1020D00040B1B0FA80F0013000F01F00012707FA8C
:1020E00000F0BBE72020F6E792FAA2F242B1B2FA82
:1020F00082F2013202F01F0202EB42021205B7E740
:102100002022F6E7CEB9940E0134A40604F0F84478
:1021100086BB900E013000F01F070120B840044339
:10212000B6BB900E013000F01F0000EB40021E3ADB
:10213000120542F0007222439BE792FAA2F434B1F6
:10214000B4FA84F40134A40604F0F844E0E720244F
:10215000F8E700BF00F0FF03FFFF070000007F402B
:102160000000088000030450000052C7000084CB28
:102170000100008092FAA2F040B1B0FA80F0013084
:1021800000F01F00012707FA00F0C8E72020F6E75B
:1021900092FAA2F25AB1B2FA82F0013000F01F00B6
:1021A00000EB40021E3A120542F00072C3E7202005
:1021B000F3E711F4000F7FF49EAE1968264A9142AE
:1021C00001D0002007E644F400022448816821F091
:1021D000E0710A438260224A126892092149A1FBF8
:1021E0000212920902EB42029200019202E0019A6D
:1021F000013A0192019A002AF9D10020EBE511F091
:10220000807F7FF47CAE1968134A914201D0002090
:10221000E1E544F080721148816821F0E0710A43E1
:1022200082600020D7E511F4800F11D119680A4AA5
:10223000914201D00020CEE544F480020748816835
:1022400021F0E0710A4382600020C4E50020C2E56D
:102250000020C0E50220C1E5000004500003045046
:102260000C000020632D3E05104B1B780BB901209C
:10227000704710B504464FF47A70B0FBF3F30C4A84
:102280001068B0FBF3F001F0F7F968B90F2C01D931
:1022900001200AE0002221464FF0FF3001F0AAF9A8
:1022A000044B1C60002000E0012010BD0400002051
:1022B0000C0000200800002010B5032001F088F970
:1022C0000020FFF7D1FF10B10124204610BD0446C5
:1022D000FFF732FBF9E70000034B1B78034A116854
:1022E0000B441360704700BF04000020E805002085
:1022F000014B1868704700BFE805002038B5044658
:10230000FFF7F6FF0546B4F1FF3F02D0044B1B7800
:102310001C44FFF7EDFF401BA042FAD338BD00BFBD
:1023200004000020002859D010B5044690F8413030
:10233000002B43D0242384F841302268136823F013
:10234000010313606368226823F0706313612268DD
:10235000936823F400439360E368012B33D0A368B0
:10236000226843F404439360E368022B31D022686F
:10237000536843F0007343F4004353602268D3680A
:1023800023F40043D360236962691343A16922687F
:1023900043EA0123D360E369216A22680B43136097
:1023A0002268136843F00103136000206064202357
:1023B00084F84130206384F8420010BD80F840303A
:1023C000FFF706FBB6E7A368226843F40043936077
:1023D000CAE723684FF400625A60C8E701207047DB
:1023E00090F84130DBB2202B24D190F84030012B03
:1023F00022D0012380F84030242380F84130026845
:10240000136823F0010313600268136823F48053F8
:10241000136002681368194311600268136843F07F
:1024200001031360202380F84130002380F84030FE
:1024300018467047022070470220704790F84130DC
:10244000DBB2202B22D190F84030012B20D0012389
:1024500080F84030242380F841300268136823F06C
:10246000010313600268136823F4706343EA0121D7
:1024700011600268136843F001031360202380F8A1
:102480004130002380F840301846704702207047E2
:102490000220704730B583B00446204B9B6D13F08B
:1024A000805F0BD001F03CF8B0F5007F17D0802C96
:1024B0001FD82DD0702C2DD000211BE0174DAB6DF7
:1024C00043F08053AB65AB6D03F080530193019BE8
:1024D00001F026F8AB6D23F08053AB65E4E7802C68
:1024E00003D9A02C03D9022104E0002102E001213C
:1024F00000E003210A4A136823F007030B4313602B
:10250000136803F007038B4206D1002003B030BDEF
:102510000221EFE70121EDE70120F7E7001002407B
:1025200000200240284A9368D26802F0030213F0A8
:102530000C030AD00C2B06D0042B1FD0082B20D064
:102540000020024610E0012AF6D11F4A126812F05C
:10255000080F0CD11C4AD2F89420C2F303221B4965
:1025600051F8222043B100200C2B0DD07047164AA1
:102570001268C2F30312F2E71046F5E7144800228E
:10258000F2E714480022EFE70F4BDB6803F0030388
:10259000022B16D0032B00D10E4A0B4BD868C0F388
:1025A00002100130D968C1F3062102FB01F2B2FB2F
:1025B000F0F2D868C0F3416001304000B2FBF0F0A7
:1025C000D4E7034AE9E700BF00100240680C0108A5
:1025D0000024F40000127A00002800F02783F0B5F0
:1025E00083B00446AE4B9D6805F00C05DE6806F02E
:1025F0000306036813F0100F5AD0E5B10C2D18D064
:10260000A369002B00F0BB80A54A136843F00103C7
:102610001360FFF76DFE0746A14B1B6813F0020F16
:1026200040F09A80FFF764FEC01B0228F4D9032013
:1026300007E3012EE4D19A4B1B6813F0020F03D07D
:10264000A369002B00F0F482206A954B1B6813F0FD
:10265000080F5BD0924B1B6803F0F00398425CD8E4
:102660008F4B1A6842F008021A601A6822F0F002D2
:10267000216A0A431A605A6822F47F42E16942EAF9
:1026800001225A60002D60D0FFF74CFF844B9B68FD
:10269000C3F30313834AD35C03F01F03D840824B78
:1026A0001860824B1868FFF7DFFD002840F0C982F0
:1026B000236813F0010F00F08180082D75D00C2DD8
:1026C00071D06368B3F5803F00F09780B3F5A02F19
:1026D00000F09980724B1A6822F480321A601A68EE
:1026E00022F480221A606368002B00F09980FFF7C3
:1026F000FFFD07466A4B1B6813F4003F5ED1FFF7EE
:10270000F7FDC01B6428F5D903209AE2644BD3F887
:1027100094301B0903F0F003A0E7FFF7BBFE00288D
:1027200040F088825E4B1A6842F008021A601A680C
:1027300022F0F002216A0A431A605A6822F47F42AA
:10274000E16942EA01225A609EE7206AFFF7A2FE91
:10275000002899D0012074E2514B1A6842F0080217
:102760001A601A6822F0F002216A0A431A605A6855
:1027700022F47F42E16942EA01225A6098E7484A1E
:10278000136823F001031360FFF7B2FD0746444BC3
:102790001B6813F0020F8BD0FFF7AAFDC01B0228A5
:1027A000F5D903204DE2032E8BD13D4B1B6813F46A
:1027B000003F03D06368002B00F03E82236813F0D3
:1027C000020F4FD0042D3CD00C2D38D0E368002BE5
:1027D00077D0334A136843F480731360FFF788FDA2
:1027E00006462F4B1B6813F4806F61D1FFF780FD05
:1027F000801B0228F5D9032023E2294A136843F4F9
:10280000803313606FE703F18043A3F53C331A680C
:1028100042F480221A601A6842F480321A6062E739
:10282000FFF766FD07461E4B1B6813F4003FC5D03B
:10283000FFF75EFDC01B6428F5D9032001E2022EDC
:10284000C4D1174B1B6813F4806F03D0E368002BCF
:1028500000F0F481124A536823F0FE43216943EAF1
:1028600001635360236813F0080F55D06369002B90
:102870003BD00B4AD2F8943043F00103C2F89430B5
:10288000FFF736FD0646064BD3F8943013F0020FDF
:1028900042D1FFF72DFD801B0228F4D90320D0E19F
:1028A00000100240500C01080C000020080000201D
:1028B000B44A536823F0FE43216943EA016353603D
:1028C000D0E7B04A136823F480731360FFF710FD5C
:1028D0000646AC4B1B6813F4806FC3D0FFF708FDAE
:1028E000801B0228F5D90320ABE1A64AD2F8943028
:1028F00023F00103C2F89430FFF7FAFC0646A14B1F
:10290000D3F8943013F0020F06D0FFF7F1FC801BD0
:102910000228F4D9032094E1236813F0040F7AD03D
:10292000984B9B6D13F0805F36D1964B9A6D42F0B9
:1029300080529A659B6D03F080530193019B0126A1
:10294000914B1B6813F4807F28D0A368012B39D0EA
:10295000052B3FD08B4BD3F8902022F00102C3F817
:102960009020D3F8902022F00402C3F89020A368AE
:10297000002B3DD0FFF7BCFC0746824BD3F89030CC
:1029800013F0020F46D1FFF7B3FCC01B41F28833AE
:102990009842F2D9032054E10026D1E77A4A13681D
:1029A00043F480731360FFF7A3FC0746764B1B6864
:1029B00013F4807FC9D1FFF79BFCC01B0228F5D917
:1029C00003203EE16F4AD2F8903043F00103C2F891
:1029D0009030CCE76B4BD3F8902042F00402C3F860
:1029E0009020D3F8902042F00102C3F89020BEE777
:1029F000FFF77EFC0746634BD3F8903013F0020FCD
:102A000008D0FFF775FCC01B41F288339842F2D919
:102A1000032016E1E6B9236813F0200F35D0636A6E
:102A2000E3B1584AD2F8983043F00103C2F8983025
:102A3000FFF75EFC0646534BD3F8983013F0020FB5
:102A400023D1FFF755FC801B0228F4D90320F8E0BE
:102A50004C4A936D23F080539365DCE7494AD2F8E2
:102A6000983023F00103C2F89830FFF741FC064686
:102A7000444BD3F8983013F0020F06D0FFF738FC20
:102A8000801B0228F4D90320DBE0A36A002B00F0AE
:102A9000D780022B27D00C2D00F0D780394B1A6835
:102AA00022F080721A601B6813F0006F04D1354A5F
:102AB000D36823F00303D360324AD36823F08873CA
:102AC00023F48033D360FFF713FC04462D4B1B68BF
:102AD00013F0007F00F0A880FFF70AFC001B02281B
:102AE000F4D90320ADE0274BDB6803F00301E26A71
:102AF000914209D00C2D00F0A680224B1B6813F0E8
:102B0000806F2BD001209CE003F07002216B013913
:102B1000B2EB011FEED103F4FE42616BB2EB012F69
:102B2000E8D103F07842A16BB2EBC16FE2D103F4BC
:102B3000C001E26B5208013AB1EB425FDAD103F017
:102B4000C063226C5208013AB3EB426FD2D10D4BF5
:102B50001B6813F0007F4DD0002072E0094A136813
:102B600023F080731360FFF7C3FB0546054B1B681A
:102B700013F0007F0AD0FFF7BBFB401B0228F5D9FA
:102B800003205EE00010024000700040304AD3682D
:102B900030491940E36A206B013843EA0013606B47
:102BA00043EA0023E06B4008013843EA4053206CBD
:102BB0004008013843EA4063A06B43EAC0630B431B
:102BC000D360136843F080731360D36843F080735D
:102BD000D360FFF78DFB04461D4B1B6813F0007F8D
:102BE00006D1FFF785FB001B0228F5D9032028E05A
:102BF000002026E0164B1A6842F080721A60DA68EC
:102C000042F08072DA60FFF773FB0446104B1B68DA
:102C100013F0007F06D1FFF76BFB031B022BF5D9E6
:102C200003200EE000200CE000200AE001207047A5
:102C3000012006E0012004E0012002E0012000E084
:102C4000002003B0F0BD0120FBE70120F9E700BF41
:102C5000001002408C809D01002800F0988070B523
:102C60000C4605464E4B1B6803F007038B420BD204
:102C70004B4A136823F007030B431360136803F0F8
:102C800007038B4240F085802B6813F0010F39D089
:102C90006B68032B09D0022B26D063BB414A126814
:102CA00012F0020F06D1012070E03E4A126812F0C5
:102CB000007F70D03B498A6822F0030213438B6087
:102CC000FFF716FB0646374B9B6803F00C036A6858
:102CD000B3EB820F16D0FFF70BFB801B41F288335A
:102CE0009842F0D9032051E02E4A126812F4003FB6
:102CF000E0D101204AE02B4A126812F4806FD9D14A
:102D0000012043E02B6813F0020F06D0254A936898
:102D100023F0F003A9680B439360214B1B6803F079
:102D20000703A3420AD91E4A136823F0070323436B
:102D30001360136803F00703A3422ED12B6813F02E
:102D4000040F06D0174A936823F4E063E9680B4345
:102D500093602B6813F0080F07D0124A936823F48E
:102D60006053296943EAC1039360FFF7DBFB0D4B16
:102D70009B68C3F303130C4AD35C03F01F03D840D2
:102D80000A4B18600A4B1868FFF76EFA70BD0120F5
:102D900070470120FAE70120F8E70120F6E700BFBD
:102DA0000020024000100240500C01080C000020DE
:102DB00008000020014B1868704700BF0C0000207D
:102DC00008B5FFF7F7FF054B9B68C3F30223044ADE
:102DD000D35C03F01F03D84008BD00BF00100240C1
:102DE000600C010808B5FFF7E5FF054B9B68C3F3CE
:102DF000C223044AD35C03F01F03D84008BD00BFC0
:102E000000100240600C0108F8B504460F46584B0C
:102E1000DB6813F0030F18D0554BDB6803F0030396
:102E20000268934202D001252846F8BD002A00F02E
:102E30009D804F4BDB68C3F302130133426893421A
:102E400001D00125F0E7002509E00368022B56D0E8
:102E5000032B5BD0012B41D00125002DE4D1444A46
:102E6000136823F080631360FFF742FA0646404B75
:102E70001B6813F0006F05D0FFF73AFA831B022B93
:102E8000F5D90325002DCFD1002F4DD138490B693D
:102E900023F0784323F4FE43A068E268D20642EAB6
:102EA000002213430B61324A136843F080631360BE
:102EB000FFF71EFA06462E4B1B6813F0006F05D174
:102EC000FFF716FA831B022BF5D90325002DABD192
:102ED000274A1369A1690B431361A5E7244A1268C5
:102EE00012F0020F1ED02248C26822F073026168FD
:102EF000013943EA01131343C3600025ADE71C4ABF
:102F0000126812F4806FEED10125A6E7184A126804
:102F100012F4003FE7D1164A126812F4802FE2D172
:102F200001259AE7012598E7012F0FD01048026983
:102F300022F0C06222F4FE42A16863695B08013B93
:102F40005B0643EA012313430361ACE708480269C7
:102F500022F4C00222F4FE42A16823695B08013B0F
:102F60005B0543EA0123134303619CE701255BE70B
:102F7000001002402DE9F04182B00446036813F4CA
:102F8000006F25D0C36CB3F5000F06D0B3F5400F2A
:102F900012D04BB1012637461CE0BE4AD36843F439
:102FA0008033D360002708E000210430FFF72CFFB6
:102FB000074610B106460DE00027B64AD2F8883021
:102FC00023F44003E16C0B43C2F88830002601E093
:102FD00000263746236813F4003F6BD0AD4B9B6D42
:102FE00013F0805F4CD1AB4B9A6D42F080529A65E2
:102FF0009B6D03F080530193019B4FF00108A64A9B
:10300000136843F480731360FFF772F90546A24B0F
:103010001B6813F4807F05D1FFF76AF9401B022873
:10302000F5D90327002F40D19A4BD3F8903013F4F1
:10303000407315D0626E9A4212D0964AD2F8903000
:1030400023F44073D2F8901041F48031C2F890100C
:10305000D2F8901021F48031C2F89010C2F890306C
:1030600013F0010F0FD1002F40F01181894AD2F8DF
:10307000903023F44073616E0B43C2F8903015E03A
:103080004FF00008BBE7FFF733F90546814BD3F853
:10309000903013F0020FE6D1FFF72AF9401B41F2FE
:1030A00088339842F2D90327DDE73E46B8F1000F96
:1030B00040F0F480236813F0010F08D0754AD2F86D
:1030C000883023F00303216A0B43C2F88830236859
:1030D00013F0020F08D06F4AD2F8883023F00C03A7
:1030E000616A0B43C2F88830236813F0040F08D0DC
:1030F000684AD2F8883023F03003A16A0B43C2F843
:103100008830236813F0080F08D0624AD2F888305C
:1031100023F0C003E16A0B43C2F88830236813F040
:10312000200F08D05B4AD2F8883023F44063216B2B
:103130000B43C2F88830236813F4007F08D0554A47
:10314000D2F8883023F44023616C0B43C2F88830F6
:10315000236813F4806F08D04E4AD2F8883023F4E5
:103160004013A16C0B43C2F88830236813F0400F62
:1031700008D0484AD2F8883023F44053616B0B439F
:10318000C2F88830236813F0800F08D0414AD2F883
:10319000883023F44043A16B0B43C2F88830236886
:1031A00013F4807F08D03B4AD2F8883023F44033B0
:1031B000E16B0B43C2F88830236813F4801F08D0FA
:1031C000344AD2F89C3023F00303216C0B43C2F83D
:1031D0009C30236813F4005F0FD02E4AD2F8883059
:1031E00023F04063216D0B43C2F88830236DB3F1A7
:1031F000006F59D0B3F1806F5BD0236813F4002FB8
:103200000FD0244AD2F8883023F04063616D0B431D
:10321000C2F88830636DB3F1006F52D0B3F1806FA4
:1032200054D0236813F4802F0FD01A4AD2F8883074
:1032300023F04063A16D0B43C2F88830A36DB3F156
:10324000006F4BD0B3F1806F4DD0236813F4804FE3
:103250000CD0104AD2F8883023F04053E16D0B4374
:10326000C2F88830E36DB3F1805F44D0236813F473
:10327000803F08D0074AD2F8883023F00043216EFF
:103280000B43C2F88830304602B0BDE8F0813E46BC
:103290000CE700BF00100240007000401A4A936D16
:1032A00023F08053936505E7D36843F48013D3601C
:1032B000A3E70121201DFFF7A7FD00289DD00646AA
:1032C0009BE7D36843F48013D360AAE70121201D54
:1032D000FFF79AFD0028A4D00646A2E7D36843F47E
:1032E0008013D360B1E70121201DFFF78DFD002879
:1032F000ABD00646A9E70221201DFFF785FD002877
:10330000B4D00646B2E700BF00100240F0B583B06B
:10331000002336E0042400E00024B4403C4302359E
:103320005C4E46F825405C4C2568D44325EA0206ED
:103330004F6817F4803F01D042EA0506564D2E60D3
:103340006D6804EA05064F6817F4003F01D042EAB1
:103350000506514D6E60AD6804EA05064F6817F426
:10336000801F01D042EA05064B4DAE60ED682C404F
:103370004E6816F4001F01D042EA0504464AD460A4
:1033800001330A6832FA03F400F0818001249C4082
:103390002240F5D04D686E1E012E03D9112D01D0AB
:1033A000122D12D186685F000325BD4026EA05066E
:1033B000CD68BD4035438560466826EA04064D6801
:1033C000C5F300149C4034434460C7685E00032585
:1033D000B540EC4327EA05078D68B5403D43C5601D
:1033E0004D68022D01D0122D13D1DF08083750F897
:1033F00027E003F007054FEA850C0F2505FA0CF5C9
:103400002EEA050E0D6905FA0CF545EA0E0540F8A1
:103410002750056825404C6804F00304B4402C4351
:1034200004604C6814F0805FAAD01C4C256E45F0F7
:1034300001052566246E04F001040194019C9D0899
:10344000AE1C144C54F8267003F00304A6000F249D
:10345000B44027EA0407B0F1904F3FF45DAF104C41
:10346000A0420ED004F58064A0420CD004F5806424
:10347000A0420AD004F58064A0423FF44BAF072479
:103480004BE7012449E7022447E7032445E703B05B
:10349000F0BD00BF000001400004014000100240E8
:1034A000000400480369194201D001207047002040
:1034B00070470AB18161704781627047436901EAD0
:1034C000030221EA030141EA02418161704708B524
:1034D00090F82530DBB2022B03D00423C363012014
:1034E00008BD0268136823F00E03136002681368B6
:1034F00023F001031360436C03F01C03016C0122F1
:1035000002FA03F34B6080F82520002380F8243072
:10351000836B13B198470020E2E70020E0E700004A
:10352000024B186800F4C060704700BF0070004094
:10353000B0F5007F0FD01F4B1B6803F4C063B3F5D9
:10354000806F34D01B4A136823F4C06343F4806354
:10355000136000207047174B1B6803F4C063B3F57A
:10356000007F20D0134A136823F4C06343F4007330
:103570001360114B1A68322303FB02F30F4AA2FBBC
:1035800003239B0C013300E0013B0A4A526912F409
:10359000806F01D0002BF7D1064B5B6913F4806F6D
:1035A00003D100207047002070470320704700209F
:1035B000704700BF007000400C00002083DE1B43FA
:1035C000024A536843F480635360704700700040C0
:1035D000074AD36823F4E0631B041B0C000200F4C9
:1035E000E060034343F0BF6343F40033D3607047AC
:1035F00000ED00E030B4174BDB68C3F30223C3F1E6
:103600000704042C28BF04241D1D062D18D9033BD4
:103610004FF0FF3505FA04F421EA0401994005FA58
:1036200003F322EA0303194300280BDB0901C9B2A3
:1036300000F1604000F5614080F8001330BC704735
:103640000023E5E700F00F000901C9B2024B19544D
:10365000F4E700BF00ED00E014ED00E0002807DB18
:1036600000F01F02400901239340024A42F8203033
:10367000704700BF00E100E00138B0F1807F0AD25E
:10368000064B5860064AF02182F82310002098600B
:1036900007221A6070470120704700BF10E000E069
:1036A00000ED00E000286AD010B50446436A33B943
:1036B0004368B3F5827F05D00023C36102E0002395
:1036C000036143610023A36294F85D30002B4DD069
:1036D000022384F85D302268136823F040031360EE
:1036E000E368B3F5E06F47D90022B3F5706F04D0FB
:1036F000B3F5E06F01D00023A362636803F4827323
:10370000A16801F404410B43216901F002010B435C
:10371000616901F001010B43A16901F400710B43E0
:10372000E16901F038010B43216A01F080010B438C
:10373000A16A01F4005120680B430360638B03F01E
:103740000403616A01F010010B43616B01F0080191
:103750000B43E16801F470610B43216813434B6034
:1037600000202066012384F85D3010BD84F85C30B1
:103770002046FEF765F9ABE74FF48052B5E701202C
:103780007047000030B4036A23F001030362036A48
:103790004468826922F4803222F073020D682A4361
:1037A00023F002038D682B43144DA84207D005F582
:1037B000A055A84203D005F58065A84205D123F0A5
:1037C0000803CD682B4323F004030C4DA84207D017
:1037D00005F5A055A84203D005F58065A84205D19E
:1037E00024F440754C692C438D692C4344608261FC
:1037F0004A684263036230BC704700BF002C01403E
:1038000030B4036A23F480730362036A4468C269B4
:1038100022F4803222F073020D682A4323F40073ED
:103820008D6843EA0523124DA84219D0104DA842D5
:1038300007D005F5A055A84203D005F58065A8423C
:1038400007D124F440544D6944EA05148D6944EAD3
:1038500005144460C2614A68C263036230BC7047A9
:1038600023F40063CD6843EA052323F48063DDE796
:10387000002C014030B4036A23F480530362026ACF
:103880004468C36923F0807323F4E6430D6843EA78
:10389000052322F400528D6842EA05320B4DA842FE
:1038A00007D005F5A055A84203D005F58065A842CC
:1038B00004D124F480444D6944EA85144460C36112
:1038C0004B680364026230BC704700BF002C0140AB
:1038D00030B4036A23F480330362036A4468426DA0
:1038E00022F4803222F070020D682A4323F4003360
:1038F0008D6843EA05430B4DA84207D005F5A05556
:10390000A84203D005F58065A84204D124F4803490
:103910004D6944EA0524446042654A688265036251
:1039200030BC7047002C014030B4036A23F480138C
:103930000362026A4468436D23F0807323F4E0431A
:103940000D6843EA052322F400128D6842EA05520D
:103950000B4DA84207D005F5A055A84203D005F5A8
:103960008065A84204D124F480244D6944EA85246A
:10397000446043654B68C365026230BC704700BF5A
:10398000002C014030B4036A056A25F00105056288
:10399000846924F0F00444EA021423F00A030B4380
:1039A0008461036230BC704730B4056A25F01005AD
:1039B00005628469036A24F4704444EA023423F003
:1039C000A00343EA01138461036230BC704783683B
:1039D00023F070030B4343F00703836070470368D1
:1039E000196A41F21112114208D1196A40F2444297
:1039F000114203D11A6822F001021A60012380F8F3
:103A00003D30002070470268D36823F00103D36083
:103A10000368196A41F21112114208D1196A40F281
:103A20004442114203D11A6822F001021A600123B4
:103A300080F83D30002070477047000003681E4A40
:103A4000904206D0B0F1804F03D0A2F5943290425C
:103A500003D123F070034A681343174A90420ED0F3
:103A6000B0F1804F0BD0A2F59432904207D002F50E
:103A70009E32904203D002F58062904203D123F43B
:103A80004073CA68134323F080034A6913430360F9
:103A90008B68C3620B688362074B984207D003F5BB
:103AA000A053984203D003F58063984201D10B697B
:103AB0000363012343617047002C014060B310B5DC
:103AC000044690F83D3013B3022384F83D3021467C
:103AD00051F8040BFFF7B2FF012384F8483084F853
:103AE0003E3084F83F3084F8403084F8413084F828
:103AF000423084F8433084F8443084F8453084F808
:103B0000463084F8473084F83D30002010BD80F8FE
:103B10003C30FDF7CDFFD7E70120704760B310B50B
:103B2000044690F83D3013B3022384F83D3021461B
:103B300051F8040BFFF782FF012384F8483084F822
:103B40003E3084F83F3084F8403084F8413084F8C7
:103B5000423084F8433084F8443084F8453084F8A7
:103B6000463084F8473084F83D30002010BD80F89E
:103B70003C30FFF761FFD7E70120704730B4036A9C
:103B800023F010030362036A4468826922F08072A2
:103B900022F4E6420D6842EA052223F020038D68F4
:103BA00043EA0513124DA84219D0114DA84207D07F
:103BB00005F5A055A84203D005F58065A84207D1B8
:103BC00024F440644D6944EA85048D6944EA85041F
:103BD000446082614A688263036230BC704723F0AC
:103BE0008003CD6843EA051323F04003DDE700BFFF
:103BF000002C014038B590F83C30012B00F08C804F
:103C000004460D46012380F83C30142A1ED8DFE814
:103C100002F00B1D1D1D211D1D1D351D1D1D481DE7
:103C20001D1D5C1D1D1D6F000068FFF7ABFD2268A8
:103C3000936943F0080393612268936923F00403B6
:103C400093612268936929690B439361002084F88A
:103C50003C0038BD0068FFF791FF2268936943F488
:103C6000006393612268936923F4806393612268FF
:103C70009369296943EA01239361E7E70068FFF745
:103C8000BFFD2268D36943F00803D3612268D3697A
:103C900023F00403D3612268D36929690B43D361FC
:103CA000D4E70068FFF7E6FD2268D36943F40063B8
:103CB000D3612268D36923F48063D3612268D36916
:103CC000296943EA0123D361C0E70068FFF700FEDA
:103CD0002268536D43F0080353652268536D23F047
:103CE000040353652268536D29690B435365ADE79F
:103CF0000068FFF719FE2268536D43F400635365B3
:103D00002268536D23F4806353652268536D2969DB
:103D100043EA0123536599E702209AE710B48468C7
:103D200024F47F4442EA03220A43224382605DF87E
:103D3000044B704790F83C30012B64D010B504461A
:103D4000012380F83C30022380F83D3002689068FF
:103D50002E4B034093600B68602B40D022D8402B41
:103D600047D00BD9502B0ED1CA6849682068FFF79D
:103D700009FE50212068FFF72AFE04E0202B0CD01A
:103D800008D9302B09D0012384F83D30002084F875
:103D90003C0010BD0BB1102BF5D119462068FFF780
:103DA00016FEF0E7702B0ED0B3F5005FEBD1CB68B9
:103DB0004A6889682068FFF7B1FF2268936843F476
:103DC00080439360DFE7CB684A6889682068FFF723
:103DD000A5FF2268936843F077039360D3E7CA682E
:103DE00049682068FFF7E0FD60212068FFF7EFFDDC
:103DF000C9E7CA6849682068FFF7C4FD4021206808
:103E0000FFF7E5FDBFE70220704700BF8800FEFF17
:103E100090F83C30012B33D030B4012380F83C3093
:103E2000022380F83D30026853689568154CA24221
:103E300021D023F070030C68234353600368114AB8
:103E400093420AD0B3F1804F07D0A2F59432934247
:103E500003D002F59E32934204D125F080058A6892
:103E600015439D60012380F83D30002380F83C30ED
:103E7000184630BC704723F470034C682343D8E7DE
:103E800002207047002C01400268136823F49073ED
:103E900013600268936823F0010393602023836713
:103EA000002303667047436F212B00D07047B0F8A2
:103EB00052309BB253B90268136823F08003136039
:103EC0000268136843F0400313607047C26C0368D4
:103ED00012781A85C36C0133C364B0F852309BB2B8
:103EE000013B9BB2A0F85230E0E7436F212B00D09A
:103EF0007047B0F852309BB253B90268136823F090
:103F0000800313600268136843F040031360704736
:103F1000C36C1B880268C3F308031385C36C0233A8
:103F2000C364B0F852309BB2013B9BB2A0F8523050
:103F3000DEE70000436F202B27D141B34AB390F84E
:103F40007030012B27D0012380F87030C164A0F8B5
:103F50005020A0F852200023C367212343678368C1
:103F6000B3F5805F0BD00D4B4366002380F87030B3
:103F700001680A6842F080020A60184670470369C7
:103F8000002BF0D1064B4366EFE70220704701207B
:103F90007047012070470220704700BFA73E00080D
:103FA000EB3E0008836F202B5AD100295AD0002AFB
:103FB0005AD090F87030012B58D0012380F870301F
:103FC0004165A0F85820A0F85A20002303668368B2
:103FD000B3F5805F06D0A3B9036973B9FF23A0F8D6
:103FE0005C3014E0036923B940F2FF13A0F85C30A1
:103FF0000DE0FF23A0F85C3009E07F23A0F85C30DF
:1040000005E0B3F1805F1BD00023A0F85C300023F3
:10401000C367222383670268936843F001039360B8
:104020008368B3F5805F15D0114B0366002380F8D9
:10403000703001680A6842F490720A60184670474E
:1040400003691BB97F23A0F85C30E0E73F23A0F8A9
:104050005C30DCE70369002BE6D1064B0366E5E73D
:1040600002207047012070470120704702207047EE
:1040700093400008F940000808B501680A6822F07A
:1040800040020A60202242670022426609F04CF892
:1040900008BD08B5B0F85C30826F222A06D00268ED
:1040A000138B9BB243F00803138308BD0268918C05
:1040B000DBB2426D0B401370436D01334365B0F8C2
:1040C0005A309BB2013B9BB2A0F85A30B0F85A303C
:1040D0009BB2002BE9D10268136823F4907313603C
:1040E0000268936823F00103936020238367002311
:1040F000036608F091FFD8E708B5B0F85C30826F2E
:10410000222A06D00268138B9BB243F00803138364
:1041100008BD0268918C426D0B401380436D0233E1
:104120004365B0F85A309BB2013B9BB2A0F85A30BD
:10413000B0F85A309BB2002BEAD10268136823F41E
:10414000907313600268936823F001039360202347
:1041500083670023036608F05FFFD9E7704700001C
:1041600070B504460168CB6908688D6840F60F0297
:104170001A4005D113F0200F02D010F0200F1CD1EF
:104180002AB115F001021ED1544E30421BD113F456
:10419000801F03D015F4800F40F08E8013F0800F45
:1041A00003D010F0800F40F08E8013F0400F03D04A
:1041B00010F0400F40F08E8070BD236E002BFBD0BE
:1041C00020469847F8E713F0010F07D010F4807FDE
:1041D00004D001250D62E16F2943E16713F0020F5E
:1041E00007D032B1216802250D62E16F41F0040170
:1041F000E16713F0040F07D032B1216804250D6286
:10420000E16F41F00201E16713F0080F09D010F0EF
:10421000200F00D12AB1226808211162E26F0A43FF
:10422000E26713F4006F0AD010F0806F07D02268A5
:104230004FF400611162E26F42F02002E267E26F28
:10424000002AB9D013F0200F06D010F0200F03D0B1
:10425000236E0BB120469847E26F23689B6813F0EA
:10426000400F02D112F0280F20D02046FFF70CFE9D
:1042700023689A6812F0400F14D09A6822F0400226
:104280009A60E36E53B1164A9A63E06EFFF71FF926
:10429000002891D0E06E836B98478DE72046FFF7AA
:1042A0005DFF89E72046FFF759FF85E72046FFF7C6
:1042B00055FF0023E3677FE74FF480130B6220462E
:1042C00000F0A7FA78E7636E002B3FF475AF204645
:1042D000984771E72046FFF7CFFE6DE72001000405
:1042E000E542000808B5806A0023A0F85A30A0F81B
:1042F0005230FFF733FF08BDD0B50446016883682C
:104300000269134342691343C269134308689A4A16
:10431000024013430B602268536823F44053E16862
:104320000B435360A1692268944B9A4201D0236ADF
:104330001943936823F430630B4393602268904BD6
:104340009A4223D08F4B9A4234D08F4B9A424AD014
:104350008E4B9A4259D0894B9A4268D01023874994
:104360008A4200F09580E069B0F5004F00F0C0800F
:10437000082B00F22A81DFE813F0E8000F01E600C5
:1043800028011201280128012801150103F55843CD
:10439000D3F8883003F00303032B09D8DFE803F0D8
:1043A00002045C060123DAE70423D8E70823D6E7F2
:1043B0001023D4E703F5E633D3F8883003F00C0379
:1043C0000C2B0ED8DFE803F0070D0D0D090D0D0DB8
:1043D0004A0D0D0D0B000023C1E70423BFE708239E
:1043E000BDE71023BBE703F5E433D3F8883003F0CF
:1043F0003003202B34D004D8A3B3102B34D10423A2
:10440000ADE7302B32D10823A9E703F5E233D3F827
:10441000883003F0C003802B2AD004D853B3402B3C
:104420002AD104239BE7C02B28D1082397E703F563
:10443000C833D3F8883003F44063B3F5006F1FD05E
:1044400005D8FBB1B3F5806F1ED1042387E7B3F520
:10445000406F1BD1082382E7022380E702237EE717
:1044600002237CE700237AE7102378E7102376E71E
:10447000022374E7002372E7102370E710236EE72E
:1044800002236CE700236AE7102368E7102366E73E
:10449000082B00F28A80DFE803F008882988268844
:1044A000888805004FF4004003E0FEF789FC0028EF
:1044B0007DD0626802EB420383427AD8B0EB023FC0
:1044C00079D80023070E06025008301847F1000182
:1044D000FCF7DAFCA0F540722D4B9A426DD82368A8
:1044E000D860002044E0FEF71DF8E0E72948E0E747
:1044F000082B64D8DFE803F00721056324636363B6
:104500000B00244803E0FEF75BFC002859D06268EA
:10451000530803EB4000B0FBF2F080B2A0F11002B0
:104520004FF6EF739A424ED820F00F03C0F34200CB
:1045300018432368D86000201AE0FEF753FCE4E734
:10454000FDF7F0FFE1E7134803E0FEF739FC002830
:104550003DD0636800EB5300B0FBF3F080B2A0F1F4
:1045600010024FF6EF739A4233D82368D8600020C8
:10457000002323666366D0BDF369FFEF008000402F
:10458000003801400044004000480040004C00401A
:10459000FFFC0F000024F400FEF724FCD7E7FDF732
:1045A000C1FFD4E74FF40040D3E70120E0E700204B
:1045B000DEE70120DCE70120DAE70120D8E701206F
:1045C000D6E70020D4E70120D2E70120D0E7002081
:1045D000CEE70120CCE700BF436A13F0010F06D0FD
:1045E0000268536823F40033816A0B435360436AC3
:1045F00013F0020F06D00268536823F48033C16AB7
:104600000B435360436A13F0040F06D002685368EB
:1046100023F48023016B0B435360436A13F0080FAC
:1046200006D00268536823F40043416B0B43536088
:10463000436A13F0100F06D00268936823F4805386
:10464000816B0B439360436A13F0200F06D002681E
:10465000936823F40053C16B0B439360436A13F0D8
:10466000400F0AD00268536823F48013016C0B4397
:104670005360036CB3F5801F0BD0436A13F0800FB7
:1046800006D00268536823F40023816C0B43536007
:1046900070470268536823F4C003416C0B435360B6
:1046A000EBE72DE9F84305460F4616469946DDF837
:1046B00020802C68E46937EA04030CBF012400243D
:1046C000B4423CD1B8F1FF3FF3D0FDF711FEA0EBAF
:1046D0000900404521D8B8F1000F1ED02B681A6898
:1046E00012F0040FE5D0DA6912F4006FE1D04FF454
:1046F00000621A622A68136823F4D07313602A6870
:10470000936823F00103936020236B67AB67EB672B
:10471000002385F87030032012E02A68136823F420
:10472000D07313602A68936823F0010393602023F9
:104730006B67AB67002385F87030032000E0002032
:10474000BDE8F88330B583B004460023C367FDF7A6
:10475000CFFD054623681B6813F0080F0CD12368B2
:104760001B6813F0040F15D120236367A367002093
:1047700084F8700003B030BD6FF07E4300930346B1
:1047800000224FF400112046FFF78BFF0028E6D0EF
:104790000320EFE76FF07E4300932B4600224FF497
:1047A00080012046FFF77DFF0028DDD00320E1E7F0
:1047B00068B310B50446436F03B3242363672268CC
:1047C000136823F0010313602046FFF795FD0128CD
:1047D00013D0636ABBB92268536823F490435360D3
:1047E0002268936823F02A0393602268136843F0D9
:1047F000010313602046FFF7A5FF10BD80F870305D
:10480000FDF7A8F9D9E72046FFF7E6FEE3E7012028
:104810007047704770B512F4804F41D00468B4F807
:1048200050300D78EE0016FA83F32344B3F80244B7
:10483000C4F309048B69A34228D31B1B8B618B69CA
:104840007BB9066836F825309BB223F4804323F009
:10485000700383F4005343F4004343F0800326F8CD
:10486000253012F0400F0ED002680D7832F8253056
:104870009BB223F4E04323F0700343F4004343F07E
:10488000C00322F8253024B9204670BD00238B6177
:10489000D5E723460A894969006801F0F0FDF3E78E
:1048A0000468B4F850300D78EE0016FA83F3234410
:1048B000B3F80644C4F309048B69A3422ED31B1B2F
:1048C0008B618B697BB9066836F825309BB223F47F
:1048D000804323F0700383F4005343F4004343F018
:1048E000800326F8253012F0400F0ED102680D78B3
:1048F00032F825309BB223F4E04323F0700343F4F5
:10490000004343F0C00322F82530002CBCD02346DE
:104910004A894969006801F0B2FDB5E700238B615F
:10492000CFE7F0B587B0002800F08780044690F804
:10493000A932DBB1032384F8A932206800F07CFEA1
:10494000254655F8107B6E460FCD0FC62B68336099
:10495000231D0ECB384600F05FFE054658B10223FA
:1049600084F8A9320125284607B0F0BD80F8A832A6
:1049700001F0EEFDDEE70021206800F067FE2B4627
:1049800019E05A1C02EB820104EBC10101204870BE
:1049900002EB820104F8313003EB830104EBC10127
:1049A000CB8602EB820604EBC6060020F07088631B
:1049B000C8630864D3B261688B42E2D316E005EBAA
:1049C000850304EBC303002283F8692183F868514F
:1049D00083F86B21C3F87821C3F87C2105EB8503AC
:1049E00004EBC303C3F880210135EDB2A942E6D838
:1049F000254655F8107B6E460FCD0FC62B683360E9
:104A0000231D0ECB384600F023FE054660B9002377
:104A100084F82430012384F8A932E369012B08D0FB
:104A2000206801F03BF99EE7022384F8A9320125B2
:104A300099E7204600F0DAFDF2E7012593E790F8C8
:104A4000A832012B0ED010B50446012380F8A832FD
:104A5000006800F0E8FD206801F015F9002084F8F6
:104A6000A80210BD0220704770B505460C461646D8
:104A700012F0400F00F0B8800268B2F850300978A8
:104A8000C80010FA83F31344B3F80224C2F30902F6
:104A9000A36993422BD99B1AA361A36953B316F45C
:104AA000804F0DD0286830F821309BB223F4E043CA
:104AB00023F0700343F4404343F0800320F8213097
:104AC00094F82430012B2BD02A68217832F8213039
:104AD0009BB223F4E04323F0400383F0300343F41C
:104AE000004343F0800322F82130002070BD0023F2
:104AF000A361D2E7284601F07DFD16F4804FE3D094
:104B00002A68217832F821309BB223F4E04323F065
:104B1000700343F4404343F0800322F82130D3E78D
:104B2000636913446361E3691344E361216A2369A0
:104B300099421FD3C91A21626278002A3FD129689D
:104B4000B1F8502011FA82F2217802EBC102EBB9E0
:104B5000B2F8021489B221F4F84189B2A2F8021421
:104B6000B2F802146FEA41416FEA514189B2A2F8EA
:104B7000021426E021B9002384F824301346DBE731
:104B8000002384F8243023620B46D5E73E2B09D856
:104B9000590813F0010F00D00131890289B2A2F83F
:104BA00002140EE0590913F01F0F00D101396FEA0A
:104BB000C1616FEA514189B2A2F8021401E0012AF1
:104BC00006D09BB222896169286801F075F87BE7FD
:104BD0002968B1F8502011FA82F2217802EBC10263
:104BE00099B2A2F80214ECE70268B2F850300978E2
:104BF000C80010FA83F31344B3F80624C2F3090281
:104C0000A369934244D39B1AA361A369002B42D0AA
:104C100016F4804F0DD1286830F821309BB223F470
:104C2000E04323F0700343F4404343F0800320F853
:104C3000213094F82430012B7FF446AF636913448C
:104C40006361E3691344E361216A2369994239D3BB
:104C5000C91A216229686278002A58D1B1F8502017
:104C600011FA82F2217802EBC102BBBBB2F8061442
:104C700089B221F4F84189B2A2F80614B2F80614F8
:104C80006FEA41416FEA514189B2A2F8061440E04F
:104C90000023A361B9E7284601F0ACFC16F4804F6D
:104CA0007FF412AF2A68217832F821309BB223F4C6
:104CB000E04323F0700343F4404343F0800322F8C1
:104CC000213001E721B9002384F824301346C1E7DD
:104CD0000023236284F824300B46BBE73E2B09D81F
:104CE000590813F0010F00D00131890289B2A2F8EE
:104CF00006140EE0590913F01F0F00D101396FEAB5
:104D0000C1616FEA514189B2A2F8061401E0012A9B
:104D100006D09BB262896169286800F0CDFFD3E6B6
:104D2000B1F8502011FA82F1227801EBC2019AB257
:104D3000A1F80624EDE72DE9F04105462868B0F812
:104D4000443013F4004F00F0FD81B0F84440A3B2AA
:104D500014F00F0440F0CE8013F0100F5BD00388E6
:104D60009AB213F4006F40F08B8012F4004FE5D03C
:104D7000038823F070031B051B0D43F080030380A1
:104D80002868B0F8503095F86821D20012FA83F301
:104D90000344B3F80634C3F30903C5F884318BB177
:104DA000D5F87C1171B1B5F86E2101F068FBD5F82A
:104DB0008421D5F87C311344C5F87C310021284684
:104DC00001F00CFC2B68B3F8502013FA82F3D5F8ED
:104DD0007821002A75D1B3F8062492B222F4F84261
:104DE00092B2A3F80624B3F806246FEA42426FEAAF
:104DF000524292B2A3F806242A6813889BB223F485
:104E0000804323F0700383F4405343F4004343F0A2
:104E10008003138092E703889BB223F4E14323F0DD
:104E200070036FEA43436FEA53439BB203802968E0
:104E3000B1F8503095F82820D20012FA83F30B44D1
:104E4000B3F80234C3F309036B64EA6B1344EB63F6
:104E50000021284601F0CEFB95F82430002B3FF4CA
:104E60006DAF2B6C002B7FF469AF95F824302A6866
:104E700043F08003A2F84C30002385F824305DE72E
:104E8000B0F8503095F86821D20012FA83F3034449
:104E9000B3F80634C3F30903C5F88431B5F86E21BD
:104EA00005F52C7101F0EBFA2A68138823F07003E2
:104EB0001B051B0D43F080031380284601F086FB81
:104EC0003CE73E2A09D8510812F0010F00D0013109
:104ED000890289B2A3F806148EE7510912F01F0F58
:104EE00000D101396FEAC1626FEA524292B2A3F86F
:104EF000062481E730F824309EB213F4004F4AD1E3
:104F000016F0800F3FF41AAF621C02EB820105EB32
:104F1000C101286830F824309BB223F4E14323F028
:104F200070036FEA43436FEA53439BB220F8243087
:104F3000CB78022B00F0E9802868B0F85030621C72
:104F400002EB820215F83220D20012FA83F30344F6
:104F5000B3F80234C3F3090304EB840205EBC20285
:104F6000126C9A4240F2DA8004EB840605EBC60626
:104F7000D21A326404EB840205EBC202126C002ADE
:104F800040F0D380013404EB840415F83410284633
:104F900001F030FBD2E630F8243023F070031B051B
:104FA0001B0D43F0800320F8243004EB8401C9007A
:104FB00001F5B47105EB010804EB840305EBC303B1
:104FC00093F87431002B40D12868B0F8503004EBCE
:104FD000840205EBC20292F86821D20012FA83F330
:104FE0000344B3F80674C7F3090717BB04EB840343
:104FF00005EBC303D3F884213A44C3F88421D3F8E2
:105000007C213A44C3F87C21D3F880313BB104EBD6
:10501000840305EBC303D3F878319F4270D204EBCD
:10502000840305EBC30393F86811284601F0D6FA10
:1050300066E704EB840105EBC1013B46B1F86E2144
:10504000D1F87C1101F01BFAD0E704EB840305EBE7
:10505000C30393F86B31022B33D0296804EB84022D
:1050600005EBC20292F8680131F820309BB223F4BC
:10507000E04323F0700343F4004343F0C00321F8FE
:105080002030286892F8683130F8232012F4804FDD
:105090001ED0B0F85020DB0013FA82F30344B3F8BB
:1050A0000274C7F30907002FA0D004EB840105EBBD
:1050B000C1013B46B1F87021D1F87C1101F0DFF954
:1050C00094E7324641462846FFF7A4FB07468DE7A2
:1050D000B0F85020DB0013FA82F30344B3F80674EF
:1050E000C7F30907002F81D004EB840105EBC10150
:1050F0003B46B1F87221D1F87C1101F0C0F975E797
:105100004146286800F0EBFDFAE616F4807F3FF494
:1051100013AF32462846FFF7A7FC0FE604EB8402E4
:1051200005EBC2020026166424E704EB840205EBBB
:10513000C202D66B1E44D663546C2344536400F001
:10514000CEFDFBE50020BDE8F08190F8A832012BF0
:105150000DD010B50446012380F8A83280F8241041
:10516000006800F08AFD002084F8A80210BD02202B
:10517000704710B50446006800F098FD10F4004F29
:1051800040F09B80206800F091FD10F4806F40F0AB
:105190009880206800F08AFD10F4804F08D02268C3
:1051A000B2F844309BB223F480439BB2A2F844305F
:1051B000206800F07BFD10F4005F08D02268B2F890
:1051C00044309BB223F400539BB2A2F844302068D1
:1051D00000F06CFD10F4805F21D02268B2F84030FE
:1051E0009BB223F004039BB2A2F840302268B2F8CD
:1051F00040309BB223F008039BB2A2F8403094F8F1
:10520000E032012B6ED0204601F028FA2268B2F875
:1052100044309BB223F480539BB2A2F84430206800
:1052200000F044FD10F4006F63D1206800F03EFDF3
:1052300010F0800F2BD02268B2F844309BB223F0DC
:1052400080039BB2A2F8443094F8E032002B6DD179
:105250002268B2F840309BB243F00403A2F8403019
:105260002268B2F840309BB243F00803A2F8403005
:10527000012184F8E0122368B3F85430C3F38D039E
:1052800003F03C03C4F8E432204601F0D9FA206868
:1052900000F00CFD10F4007F4CD1206800F006FDFA
:1052A00010F4807F08D02268B2F844309BB223F417
:1052B00080739BB2A2F8443010BD2046FFF73BFD3F
:1052C00060E72268B2F844309BB223F480639BB25B
:1052D000A2F84430204601F09EF900212046FFF755
:1052E00034FF56E7002184F8E012204601F0A8FAC6
:1052F00089E72268B2F840309BB243F00803A2F875
:1053000040302268B2F844309BB223F400639BB271
:10531000A2F844302268B2F840309BB243F0040354
:10532000A2F84030204601F089F97EE7204601F0DE
:1053300085F9ACE72268B2F844309BB223F40073DD
:105340009BB2A2F84430204601F05FF9A5E770B5A2
:1053500005460C4611F0800F26D101F0070000EB46
:105360008001C90001F5B476A91900EB800005EBB6
:10537000C000002680F8696104F007040C700A611F
:10538000CB704A7802B1CC81022B17D095F8A832A5
:10539000012B16D0012385F8A832286800F06CF99B
:1053A000002085F8A80270BD01F00700013000EB75
:1053B000800105EBC10101264E70DDE700230B7172
:1053C000E4E70220EFE710B504460B4611F0800F2A
:1053D0001FD101F0070202EB8201C90001F5B4718F
:1053E000014402EB820200EBC202002082F8690154
:1053F00003F007030B7094F8A832012B13D001239C
:1054000084F8A832206800F0D7FA002084F8A802B7
:1054100010BD01F00702013202EB820100EBC10175
:1054200001204870E4E70220F2E738B501F00704F4
:1054300004EB8401C90001F5B471014404EB840557
:1054400000EBC505C5F87C21C5F880310023C5F8FF
:10545000843185F8693185F8684124B9006800F025
:105460003EFC002038BD006800F039FCF9E701F08F
:10547000070101EB810100EBC101D1F88401704704
:1054800070B501F007056C1C04EB840100EBC10151
:1054900005EB850600EBC606F2633364012286F84D
:1054A0004C20B364002373644A7004EB840400F856
:1054B000345025B9006800F012FC002070BD00686F
:1054C00000F00DFCF9E738B501F007054268954298
:1054D00031D804460B4611F0800F1ED101EB81013B
:1054E000C90001F5B471014403EB830300EBC3036E
:1054F000002283F8692101238B700D7094F8A83283
:10550000012B1AD0012384F8A832206800F03FFB59
:105510005DB1002084F8A80238BD6B1C03EB830149
:1055200000EBC10101224A70E5E704F52C71206807
:1055300000F0C0FBEDE70120EEE70220ECE70B46B0
:1055400001F00F014268914230D810B5044613F0C3
:10555000800F21D103F0070202EB8201C90001F59F
:10556000B471014402EB820200EBC202002082F817
:10557000690100228A7003F007030B7094F8A832C7
:10558000012B15D0012384F8A832206800F024FBF9
:10559000002084F8A80210BD03F00702013202EBDC
:1055A000820100EBC10101204870E2E70120704751
:1055B0000220F0E711F0800F0BD001F0070101315C
:1055C00001EB810100EBC10152B90A73CB800020CD
:1055D000704701EB8101C90001F5B4710144F3E7A3
:1055E00001220A730B811B0C4B81F0E70346026812
:1055F0000121C0F8E812002083F8E002B2F854302C
:105600009BB20B43A2F85430B2F854309BB243F033
:105610000203A2F85430704784B001A880E80E005D
:10562000002004B0704703460020A3F844004BF666
:105630008072A3F840207047B0F8403023F47E53C6
:105640005B045B0CA0F840300020704700207047DE
:1056500084B010B4044602A880E80E000123A4F828
:1056600040300020A4F84000A4F84400A4F8500002
:105670005DF8044B04B0704730B403460A7830F844
:105680002240A4B224F4EC4424F07004A4B2C878FC
:1056900003285BD8DFE800F04F560252002048F2A2
:1056A00080052C4323F822400C7833F8242012B2D2
:1056B00022F4E04222F07002224392B22A4323F8FD
:1056C00024200A7B002A40F0B6804A78002A4ED077
:1056D000B3F8502013FA82F20C7802EBC402CC88A3
:1056E00064086400A2F800440C7833F8242012F017
:1056F000400F0CD033F8242092B222F4E04222F082
:10570000700242F4004242F0C00223F82420CA781A
:10571000012A1DD0097833F8212092B222F4E04208
:1057200022F0400282F0200242F4004242F0800265
:1057300023F8212064E044F40074B0E744F4C0642A
:105740000020ACE744F480640020A8E70120A6E72D
:10575000097833F8212092B222F4E04222F040028C
:1057600042F4004242F0800223F8212048E0B3F8DE
:10577000502013FA82F20C7802EBC402CC88640841
:105780006400A2F80444B3F8502013FA82F20C78B3
:1057900002EBC4020C69ACBBB2F80644A4B224F418
:1057A000F844A4B2A2F80644B2F806446FEA4444AE
:1057B0006FEA5444A4B2A2F806440C7833F82420CB
:1057C00012F4804F0CD033F8242092B222F4E0423D
:1057D00022F0700242F4404242F0800223F824207A
:1057E000097833F8212092B222F4804222F070022C
:1057F00082F4405242F4004242F0800223F8212019
:1058000030BC70473E2C09D8650814F0010F00D059
:105810000135AD02ADB2A2F80654CEE7650914F029
:105820001F0F00D1013D6FEAC5646FEA5444A4B272
:10583000A2F80644C1E70C7833F8242092B222F48F
:10584000E04222F0700242F4014242F0800223F86A
:105850002420B3F8502013FA82F20C7802EBC40231
:105860000C8964086400A2F80044B3F8502013FACD
:1058700082F20C7802EBC4024C8964086400A2F83E
:1058800004444A78002A40D10C7833F8242012F4DA
:10589000804F0CD033F8242092B222F4E04222F060
:1058A000700242F4404242F0800223F824200C7837
:1058B00033F8242012F0400F0CD033F8242092B299
:1058C00022F4E04222F0700242F4004242F0C002B0
:1058D00023F824200D7833F8252092B222F4804258
:1058E00022F0700282F4405248F28004224323F8EE
:1058F0002520097833F8212092B222F4E04222F0E8
:105900004002224323F821207AE70C7833F8242040
:1059100012F4804F0CD033F8242092B222F4E042EB
:1059200022F0700242F4404242F0800223F8242028
:105930000C7833F8242012F0400F0CD033F82420D8
:1059400092B222F4E04222F0700242F4004242F0AD
:10595000C00223F82420CA78012A1ED00C7833F81C
:10596000242092B222F4E04222F0400282F020028F
:1059700042F4004242F0800223F82420097833F8F0
:10598000212092B222F4804222F0700242F40042BE
:1059900042F0800223F8212032E70C7833F82420EB
:1059A00092B222F4E04222F0400242F4004242F07D
:1059B000800223F82420E1E70B7B002B46D14B78B3
:1059C00013B30A7830F8223013F0400F0CD030F8BF
:1059D00022309BB223F4E04323F0700343F40043EE
:1059E00043F0C00320F822300A7830F822309BB20E
:1059F00023F4E04323F0400343F4004343F08003E7
:105A000020F82230002070470A7830F8223013F452
:105A1000804F0CD030F822309BB223F4E04323F0C7
:105A2000700343F4404343F0800320F822300A78A7
:105A300030F822309BB223F4804323F0700343F408
:105A4000004343F0800320F82230DBE710B44B78AA
:105A5000002B4FD10A7830F8223013F4804F0CD04D
:105A600030F822309BB223F4E04323F0700343F478
:105A7000404343F0800320F822300A7830F8223087
:105A800013F0400F0CD030F822309BB223F4E043E7
:105A900023F0700343F4004343F0C00320F82230A6
:105AA0000A7830F822309BB223F4E04323F07003ED
:105AB00043F4004343F0C00320F822300B7830F861
:105AC000232092B222F4804222F0700248F2800435
:105AD000224320F823200A7830F822309BB223F4A6
